:1000000004C1000021C100001FC100001DC100008B
:100010001BC1000019C1000017C1000015C100007C
:1000200013C1000011C100000FC100000DC100008C
:100030000BC1000086C1000007C1000005C100001F
:1000400003C1000001C10000FFC00000FDC00000AE
:10005000FBC00000F9C00000F7C00000F5C00000C0
:10006000F3C00000F1C00000EFC00000EDC00000D0
:10007000EBC00000E9C00000E7C00000E5C00000E0
:10008000E3C00000E1C00000DFC0000047045F04DF
:10009000630467046B046F04730489048B048E0487
:1000A0009104940497049A04AA04CC04EE04100565
:1000B00032055405760594059B05A205A905B005F2
:1000C000B7058D05C105D605E905ED05F105F50571
:1000D000F905FD0501060506090618061A061D069E
:1000E00020062306260629062C062F063206490678
:1000F00079069B06BD06DF0601072307450767074C
:1001000089077106A307AA07B107B807BF07C60783
:10011000CD07D407DB079C07E607FB070E0812088C
:1001200016081A081E08220826082A082E0832086F
:1001300036083A0848084A084D0850085308560837
:1001400059085C085F086208650868086B08810840
:10015000A908CB08ED080F0931095309750997095A
:10016000B909DB09FD091F0A250A410A480A4F0A95
:10017000560A5D0A640A6B0A720A790A800A870ABB
:100180008E0A3A0A9B0AB10AC60ACA0ACE0AD20ADB
:10019000D60ADA0ADE0AE20AE60AEA0AEE0AF20AEF
:1001A000F60AFA0AFE0A0C0B0E0B110B140B170BB6
:1001B0001A0B1D0B200B230B260B290B2C0B2F0BC3
:1001C000320B350B380B4F0B770B990BBB0BDD0B41
:1001D000FF0B210C430C650C870CA90CCB0CED0C10
:1001E0000F0D310D530D590D770D800D890D920DA9
:1001F0009B0DA40DAD0DB60DBF0DC80DD10DDA0DC3
:10020000E30DEC0DF50D6E0D030E11241FBECFEFA7
:10021000D0E4DEBFCDBF11E0A0E0B1E0E6E2FEE158
:1002200000E00BBF02C007900D92A63CB107D9F7C2
:1002300021E0A6ECB1E001C01D92A83DB207E1F7B4
:100240000E94050E0C94110FDBCE181619065CF0F7
:100250000895000021503109E1F74F5F5F4F841787
:10026000950719F4089540E050E027E033E0F1CF1E
:100270005E9888B95F9A00005F9882E090E0E5CFD1
:10028000089581E0F5CF0895813118F48158F0CFB9
:1002900008958155EDCF089584E690E0D6DF88E398
:1002A000E7DF86E0E5DF8FE0E3DF81E0E1DF8AE0A2
:1002B00090E0CBCF08955E9A88B95F9A00005F986E
:1002C00081E090E0C2CF08950F931F93CF93DF9307
:1002D000182FEB01D6DF8881882351F001E0010F50
:1002E000812FD2DF8991E7DF102F88818111F6CF2E
:1002F000DF91CF911F910F9108958BE08093810042
:100300008DE790E0909389008093880082E080934D
:100310006F001092850010928400809101019091ED
:100320000201A0910301B09104018093C701909351
:10033000C801A093C901B093CA018FB780688FBF6D
:1003400008951F920F920FB60F9211248F939F93CF
:10035000AF93BF938091C7019091C801A091C9014B
:10036000B091CA010197A109B1098093C701909387
:10037000C801A093C901B093CA01892B8A2B8B2B8A
:1003800099F481E08093CB01809101019091020169
:10039000A0910301B09104018093C7019093C8011B
:1003A000A093C901B093CA01BF91AF919F918F9162
:1003B0000F900FBE0F901F901895609301017093DE
:1003C000020180930301909304016093C70170932D
:1003D000C8018093C9019093CA010895EF92FF92DA
:1003E0000F931F93CF93DF93CDB7DEB7A8970FB6C8
:1003F000F894DEBF0FBECDBF98E08E010F5F1F4F98
:10040000D801E92F1D92EA95E9F73EE039838BE1A7
:100410008A838EE18B832CE12C838D832FE12E83C5
:100420003F837E01F9E0EF0EF11CD701E92F1D9209
:10043000EA95E9F78CE08D878E87FE017196DF01E2
:10044000492F1D924A95E9F78D8B8E8B3896DF01E7
:10045000492F1D924A95E9F78D8F8E8F3896DF01CF
:100460001D929A95E9F739A33AA32BA385E18CA3B2
:100470002DA32EA38FA380E4FBDEF80181918F01D1
:100480001ADFE016F106C9F78E01075F1F4F7E01E4
:10049000F1E1EF0EF11CD8018D918D010CDFE0161A
:1004A000F106C9F78E010F5E1F4F7E01B9E1EB0E19
:1004B000F11CF80181918F01FEDEE016F106C9F70B
:1004C0008E01075E1F4F7E01F1E2EF0EF11CD80195
:1004D0008D918D01F0DEE016F106C9F78E010F5DFA
:1004E0001F4F7E01B9E2EB0EF11CF80181918F01E3
:1004F000E2DE0E151F05C9F780E8BADEA8960FB632
:10050000F894DEBF0FBECDBFDF91CF911F910F9149
:10051000FF90EF90089520E030E0E82FF0E09BB1ED
:10052000907F98609BB94BB1BF01022E02C07595B8
:1005300067950A94E2F7962F9170942B9BB9599A7C
:100540002F5F3F4F2830310551F75A9A8BB1807F8A
:100550008BB908958930A1F08830A1F08730A1F0DF
:100560008630A1F08530A1F08430A1F08330A1F075
:100570008230A1F08130A1F0811114C080E408958F
:1005800088E1089580E0089589E5089584E008955C
:100590008CE008958AE1089589E0089581E2089544
:1005A0008BE5089580E008958091D201823009F4AE
:1005B0003EC028F4882361F0813079F14AC084304C
:1005C00009F43DC008F437C0853009F43CC041C08F
:1005D0008091C601811121C054DE65E071E081E0A7
:1005E00073DEFCDE81E150DE80E065DE83E14CDE1F
:1005F00081E061DE85E148DE82E05DDE87E144DEA8
:1006000083E059DE89E140DE84E055DE809100011F
:10061000A1DF81DF81E08093D2011C9904C082E0D8
:100620008093D20125C081E08093D2011FC083E076
:100630008093D20125C084E08093D20124C085E05C
:100640008093D20123C081E08093D2018093C601C0
:100650000DC08330A9F028F4813041F08230C1F41C
:1006600007C0843081F0853099F410C012B8089525
:1006700008DE60E171E081E027DE81E082B9089563
:1006800082E082B9089584E082B9089588E082B951
:1006900008958091D701823009F45BC028F4882343
:1006A00061F08130A1F1A7C0843009F496C008F44C
:1006B00072C0853009F497C09EC08091C601813018
:1006C00009F0D8C068E171E0FFDD189905C0189BFA
:1006D000FECF81E08093D701199B04C01A9B02C012
:1006E0001B9989C080910001282F30E021503109E9
:1006F0001AF081508093000180910001811103C0A4
:1007000084E18093C60185E08093D70184C0199964
:1007100005C0199BFECF82E08093D701189B04C0CF
:100720001A9B02C01B9967C080910001282F30E0FE
:10073000215031091AF0815080930001809100010D
:10074000811103C084E18093C60185E08093D701C5
:1007500062C01A9905C01A9BFECF83E08093D7012F
:10076000199B04C0189B02C01B9945C080910001D1
:10077000282F30E0215031091AF081508093000178
:1007800080910001811103C084E18093C60185E05E
:100790008093D70140C01B9905C01B9BFECF84E00E
:1007A0008093D701199B04C01A9B02C0189923C0DB
:1007B00080910001282F30E0215031091AF081503A
:1007C0008093000180910001811103C084E1809336
:1007D000C60185E08093D7011EC01C9938C086E011
:1007E0008093D7013FC0189916C0189BFECF81E0B7
:1007F0008093D70117C08091D701833009F128F485
:10080000813081F08230A9F00895853021F0F8F030
:10081000863041F1089580E182B9809100019ADE2D
:100820007ACE089581E082B98091000193DE73CE83
:10083000089582E082B9809100018CDE6CCE08952B
:1008400084E082B98091000185DE65CE089588E05C
:1008500082B96CE271E081E037DD809100017ADEDF
:100860005ACE089512B88091000174DE54DE82E001
:100870008093C6010895E091D1018E2F90E08730DA
:100880009105D8F5FC01EA5BFF4F0C94080F8091AD
:10089000C601823009F03DC06AE371E081E014DDF9
:1008A000189906C081E08093D101189903C033C024
:1008B000189B23C01092D1011899FCCF2AC082E066
:1008C0008093D1012BC083E08093D1012AC084E0C2
:1008D0008093D10129C085E08093D10128C086E0B2
:1008E0008093D10127C068E171E081E0EDDC83E015
:1008F0008093C6011092D1010CC0E091D1018E2FDE
:1009000090E087309105C0F4FC01E35BFF4F0C944D
:10091000080F12B8089581E082B9089584E082B981
:10092000089588E082B9089581E082B9089582E04F
:1009300082B9089581E082B90895E091CC018E2FAB
:1009400090E08730910508F0D7C0FC01EC5AFF4FCA
:100950000C94080F189905C0189BFECF81E0809376
:10096000CC01199B04C01A9B02C01B99C8C080917E
:100970000001282F30E0215031091AF08150809376
:10098000000180910001811103C084E18093C601C0
:1009900087E08093CC01C1C01A9905C01A9BFECF95
:1009A00082E08093CC01199B04C0189B02C01B9964
:1009B000A6C080910001282F30E0215031091AF0A3
:1009C00081508093000180910001811103C084E176
:1009D0008093C60187E08093CC019FC01B9905C01E
:1009E0001B9BFECF83E08093CC01199B04C01A9B14
:1009F00002C0189984C080910001282F30E0215056
:100A000031091AF081508093000180910001811119
:100A100003C084E18093C60187E08093CC017DC050
:100A2000189905C0189BFECF84E08093CC01199BD8
:100A300004C01A9B02C01B9962C080910001282F3C
:100A400030E0215031091AF08150809300018091EB
:100A50000001811103C084E18093C60187E0809387
:100A6000CC015BC0199905C0199BFECF85E080932E
:100A7000CC01189B04C01A9B02C01B9940C08091F6
:100A80000001282F30E0215031091AF08150809365
:100A9000000180910001811103C084E18093C601AF
:100AA00087E08093CC0139C0189905C0189BFECF10
:100AB00086E08093CC01199B04C01A9B02C01B994D
:100AC0001EC080910001282F30E0215031091AF01A
:100AD00081508093000180910001811103C084E165
:100AE0008093C60187E08093CC0117C01C993FC05A
:100AF00088E08093CC0145C01092CC010895E0912C
:100B0000CC018E2F90E0FC013197E830F10508F020
:100B100040C0E55AFF4F0C94080F80E182B98091E4
:100B2000000118DDF8CC089581E082B980910001C0
:100B300011DDF1CC089584E082B9809100010ADDD5
:100B4000EACC089588E082B98091000103DDE3CC0E
:100B5000089581E082B980910001FCDCDCCC08952D
:100B600082E082B980910001F5DCD5CC089581E066
:100B700082B962E471E0A8DB80910001EBDCCBCCB0
:100B8000089512B880910001E5DCC5DC84E0809313
:100B9000C6010895E091CD018E2F90E08A30910535
:100BA000D8F5FC01ED59FF4F0C94080F60E571E09A
:100BB00081E08ADB8091C601843071F5189906C006
:100BC000189BFECF81E08093CD0134C01092CD01FF
:100BD0002FC082E08093CD0130C083E08093CD01AF
:100BE0002FC084E08093CD012EC085E08093CD019D
:100BF0002DC086E08093CD012CC087E08093CD018D
:100C00002BC088E08093CD012AC089E08093CD017C
:100C100029C01092CD010CC0E091CD018E2F90E043
:100C20008A30910540F5FC01E359FF4F0C94080F01
:100C300012B8089582E082B9089584E082B90895D7
:100C400081E082B9089588E082B9089582E082B98E
:100C5000089584E082B9089581E082B9089582E020
:100C600082B9089588E082B968E171E081E02CDB07
:100C700085E08093C6010895E091D3018E2F90E026
:100C80008B30910508F04BC1FC01E958FF4F0C94E3
:100C9000080F8091C601853009F0A0C112B81999DA
:100CA00005C0199BFECF81E08093D301189B04C03F
:100CB0001A9B02C01B9933C180910001282F30E09C
:100CC000215031091AF08150809300018091000178
:100CD000811103C084E18093C6018AE08093D3012F
:100CE0002BC1199929C1199BFECF81E08093D301B3
:100CF0002AC11A9905C01A9BFECF82E08093D301C6
:100D0000199B04C0189B02C01B9909C18091000166
:100D1000282F30E0215031091AF0815080930001D2
:100D200080910001811103C084E18093C6018AE0B3
:100D30008093D30101C1189905C0189BFECF83E0B1
:100D40008093D301199B04C01A9B02C01B99E7C072
:100D500080910001282F30E0215031091AF0815094
:100D60008093000180910001811103C084E1809390
:100D7000C6018AE08093D301DFC01B9905C01B9B8D
:100D8000FECF84E08093D301199B04C01A9B02C05C
:100D90001899C5C080910001282F30E021503109F9
:100DA0001AF081508093000180910001811103C0ED
:100DB00084E18093C6018AE08093D301BDC0199974
:100DC00005C0199BFECF85E08093D301189B04C01A
:100DD0001A9B02C01B99A3C080910001282F30E00C
:100DE000215031091AF08150809300018091000157
:100DF000811103C084E18093C6018AE08093D3010E
:100E00009BC01A9905C01A9BFECF86E08093D30140
:100E1000199B04C0189B02C01B9981C080910001DE
:100E2000282F30E0215031091AF0815080930001C1
:100E300080910001811103C084E18093C6018AE0A2
:100E40008093D30179C0189905C0189BFECF87E025
:100E50008093D301199B04C01A9B02C01B995FC0E9
:100E600080910001282F30E0215031091AF0815083
:100E70008093000180910001811103C084E180937F
:100E8000C6018AE08093D30157C0199905C0199B08
:100E9000FECF88E08093D301189B04C01A9B02C048
:100EA0001B993DC080910001282F30E0215031096D
:100EB0001AF081508093000180910001811103C0DC
:100EC00084E18093C6018AE08093D30135C01B99E9
:100ED00005C01B9BFECF89E08093D301199B04C002
:100EE0001A9B02C018991BC080910001282F30E086
:100EF000215031091AF08150809300018091000146
:100F0000811103C084E18093C6018AE08093D301FC
:100F100013C01C9950C08BE08093D30157C0E0915F
:100F2000D3018E2F90E0FC013197EB30F10508F0F2
:100F300055C0EE57FF4F6CC7809100010BDBEBDA19
:100F400080E182B908958091000104DBE4DA82E057
:100F500082B9089580910001FDDADDDA84E082B97A
:100F6000089580910001F6DAD6DA81E082B9089519
:100F700080910001EFDACFDA88E082B9089580919C
:100F80000001E8DAC8DA82E082B9089580910001B0
:100F9000E1DAC1DA84E082B9089580910001DADAF9
:100FA000BADA81E082B9089580910001D3DAB3DA28
:100FB00082E082B9089568E571E081E085D9809189
:100FC0000001C8DAA8DA88E082B9089512B88091E1
:100FD0000001C0DAA0DA86E08093C6010895E091AE
:100FE000CE018E2F90E08D30910508F046C0FC01B7
:100FF000E357FF4F0DC766E671E081E065D9809148
:10100000C6018630D1F5189906C0189BFECF81E045
:101010008093CE013FC01092CE013AC082E080930F
:10102000CE013BC083E08093CE013AC084E0809340
:10103000CE0139C085E08093CE0138C086E0809330
:10104000CE0137C087E08093CE0136C088E0809320
:10105000CE0135C089E08093CE0134C08AE0809310
:10106000CE0133C08BE08093CE0132C08CE0809300
:10107000CE0131C01092CE010BC0E091CE018E2F77
:1010800090E08D30910580F5FC01E656FF4FC0C61B
:1010900012B8089581E082B9089588E082B9089570
:1010A00082E082B9089581E082B9089582E082B930
:1010B000089588E082B9089582E082B9089581E0B8
:1010C00082B9089588E082B9089581E082B90895CF
:1010D00082E082B9089568E171E081E0F5D881E0AD
:1010E00082B987E08093C6010895E091D0018E2FE8
:1010F00090E08E30910508F0B0C1FC01E955FF4F3A
:1011000087C68091C601873009F01EC212B81899AF
:1011100005C0189BFECF81E08093D001199B04C0CD
:101120001A9B02C01B9999C180910001282F30E0C1
:10113000215031091AF08150809300018091000103
:10114000811103C084E18093C6018DE08093D001BA
:1011500091C11B9905C01B9BFECF82E08093D001FB
:10116000199B04C01A9B02C0189977C18091000195
:10117000282F30E0215031091AF08150809300016E
:1011800080910001811103C084E18093C6018DE04C
:101190008093D0016FC1199905C0199BFECF83E0E0
:1011A0008093D001189B04C01A9B02C01B9955C1A3
:1011B00080910001282F30E0215031091AF0815030
:1011C0008093000180910001811103C084E180932C
:1011D000C6018DE08093D0014DC1189905C0189BC0
:1011E000FECF84E08093D001199B04C01A9B02C0FB
:1011F0001B9933C180910001282F30E02150310923
:101200001AF081508093000180910001811103C088
:1012100084E18093C6018DE08093D0012BC11999A0
:1012200005C0199BFECF85E08093D001189B04C0B8
:101230001A9B02C01B9911C180910001282F30E038
:10124000215031091AF081508093000180910001F2
:10125000811103C084E18093C6018DE08093D001A9
:1012600009C11B9905C01B9BFECF86E08093D0016E
:10127000199B04C01A9B02C01899EFC0809100010D
:10128000282F30E0215031091AF08150809300015D
:1012900080910001811103C084E18093C6018DE03B
:1012A0008093D001E7C0199905C0199BFECF87E054
:1012B0008093D001189B04C01A9B02C01B99CDC01B
:1012C00080910001282F30E0215031091AF081501F
:1012D0008093000180910001811103C084E180931B
:1012E000C6018DE08093D001C5C0189905C0189B38
:1012F000FECF88E08093D001199B04C01A9B02C0E6
:101300001B99ABC080910001282F30E0215031099A
:101310001AF081508093000180910001811103C077
:1013200084E18093C6018DE08093D001A3C01B9916
:1013300005C01B9BFECF89E08093D001199B04C0A0
:101340001A9B02C0189989C080910001282F30E0B3
:10135000215031091AF081508093000180910001E1
:10136000811103C084E18093C6018DE08093D00198
:1013700081C0189905C0189BFECF8AE08093D001E8
:10138000199B04C01A9B02C01B9967C08091000181
:10139000282F30E0215031091AF08150809300014C
:1013A00080910001811103C084E18093C6018DE02A
:1013B0008093D0015FC0199905C0199BFECF8BE0C7
:1013C0008093D001189B04C01A9B02C01B9945C092
:1013D00080910001282F30E0215031091AF081500E
:1013E0008093000180910001811103C084E180930A
:1013F000C6018DE08093D0013DC0189905C0189BAF
:10140000FECF8CE08093D001199B04C01A9B02C0D0
:101410001B9923C080910001282F30E02150310911
:101420001AF081508093000180910001811103C066
:1014300084E18093C6018DE08093D0011BC01C998C
:101440006DC08EE08093D00176C0189913C0189BB0
:10145000FECF81E08093D00114C0E091D0018E2FA7
:1014600090E0FC013197EE30F10508F06DC0EB54CF
:10147000FF4FCEC4809100016DD84DD880E182B974
:1014800008958091000166D846D881E082B9089518
:10149000809100015FD83FD888E082B9089580919B
:1014A000000158D838D882E082B9089580910001AF
:1014B00051D831D881E082B90895809100014AD88D
:1014C0002AD882E082B908958091000143D823D8B8
:1014D00088E082B90895809100013CD81CD882E050
:1014E00082B908958091000135D815D881E082B97C
:1014F0000895809100012ED80ED888E082B9089511
:101500008091000127D807D881E082B908958091A1
:10151000000120D800D882E082B908956EE671E01B
:1015200081E00E9464018091000114D80E948B0226
:1015300081E082B90895809100010CD80E948B024D
:1015400012B888E08093C6010895E091D4018E2FEF
:1015500090E08031910508F054C0FC01ED53FF4F3D
:1015600057C46CE771E081E00E9464018091C6017C
:10157000883009F046C0189906C0189BFECF81E05C
:101580008093D4014BC01092D40146C082E0809376
:10159000D40147C083E08093D40146C084E08093A7
:1015A000D40145C085E08093D40144C086E0809397
:1015B000D40143C087E08093D40142C088E0809387
:1015C000D40141C089E08093D40140C08AE0809377
:1015D000D4013FC08BE08093D4013EC08CE0809367
:1015E000D4013DC08DE08093D4013CC08EE0809357
:1015F000D4013BC08FE08093D4013AC01092D40153
:101600000BC0E091D4018E2F90E080319105D0F590
:10161000FC01ED52FF4FFCC312B8089588E082B977
:10162000089584E082B9089582E082B9089581E046
:1016300082B9089582E082B9089581E082B908955F
:1016400084E082B9089588E082B9089582E082B981
:10165000089581E082B9089582E082B9089581E019
:1016600082B9089584E082B9089588E082B9089526
:1016700068E171E081E00E94640181E082B989E063
:101680008093C6010895E091D5018E2F90E08131BD
:10169000910508F016C2FC01ED51FF4FB9C38091CE
:1016A000C601893009F0B0C212B81B9905C01B9B56
:1016B000FECF81E08093D501199B04C01A9B02C024
:1016C0001899FFC180910001282F30E02150310985
:1016D0001AF081508093000180910001811103C0B4
:1016E00084E18093C60180E18093D501F7C11A9906
:1016F00005C01A9BFECF82E08093D501199B04C0E0
:10170000189B02C01B99DDC180910001282F30E099
:10171000215031091AF0815080930001809100011D
:10172000811103C084E18093C60180E18093D501DB
:10173000D5C1199905C0199BFECF83E08093D501CF
:10174000189B04C01A9B02C01B99BBC18091000169
:10175000282F30E0215031091AF081508093000188
:1017600080910001811103C084E18093C60180E172
:101770008093D501B3C1189905C0189BFECF84E0B2
:101780008093D501199B04C01A9B02C01B9999C173
:1017900080910001282F30E0215031091AF081504A
:1017A0008093000180910001811103C084E1809346
:1017B000C60180E18093D50191C1199905C0199B9B
:1017C000FECF85E08093D501189B04C01A9B02C010
:1017D0001B9977C180910001282F30E021503109F9
:1017E0001AF081508093000180910001811103C0A3
:1017F00084E18093C60180E18093D5016FC118997F
:1018000005C0189BFECF86E08093D501199B04C0CC
:101810001A9B02C01B9955C180910001282F30E00E
:10182000215031091AF0815080930001809100010C
:10183000811103C084E18093C60180E18093D501CA
:101840004DC11A9905C01A9BFECF87E08093D50140
:10185000199B04C0189B02C01B9933C180910001E1
:10186000282F30E0215031091AF081508093000177
:1018700080910001811103C084E18093C60180E161
:101880008093D5012BC11B9905C01B9BFECF88E01F
:101890008093D501199B04C01A9B02C0189911C1ED
:1018A00080910001282F30E0215031091AF0815039
:1018B0008093000180910001811103C084E1809335
:1018C000C60180E18093D50109C1199905C0199B12
:1018D000FECF89E08093D501189B04C01A9B02C0FB
:1018E0001B99EFC080910001282F30E02150310971
:1018F0001AF081508093000180910001811103C092
:1019000084E18093C60180E18093D501E7C01899F6
:1019100005C0189BFECF8AE08093D501199B04C0B7
:101920001A9B02C01B99CDC080910001282F30E086
:10193000215031091AF081508093000180910001FB
:10194000811103C084E18093C60180E18093D501B9
:10195000C5C0199905C0199BFECF8BE08093D501B6
:10196000189B04C01A9B02C01B99ABC08091000158
:10197000282F30E0215031091AF081508093000166
:1019800080910001811103C084E18093C60180E150
:101990008093D501A3C0189905C0189BFECF8CE099
:1019A0008093D501199B04C01A9B02C01B9989C062
:1019B00080910001282F30E0215031091AF0815028
:1019C0008093000180910001811103C084E1809324
:1019D000C60180E18093D50181C01A9905C01A9B88
:1019E000FECF8DE08093D501199B04C0189B02C0E7
:1019F0001B9967C080910001282F30E021503109E8
:101A00001AF081508093000180910001811103C080
:101A100084E18093C60180E18093D5015FC01B996A
:101A200005C01B9BFECF8EE08093D501199B04C09F
:101A30001A9B02C0189945C080910001282F30E000
:101A4000215031091AF081508093000180910001EA
:101A5000811103C084E18093C60180E18093D501A8
:101A60003DC0189905C0189BFECF8FE08093D5012B
:101A7000199B04C01A9B02C01B9923C080910001CE
:101A8000282F30E0215031091AF081508093000155
:101A900080910001811103C084E18093C60180E13F
:101AA0008093D5011BC01C99A0C081E18093D50112
:101AB000AAC01B9913C01B9BFECF81E08093D50168
:101AC00016C0E091D5018E2F90E0FC013197E131F5
:101AD000F10508F099C0EC50FF4F9AC180910001C8
:101AE0000E94AA020E948B0280E182B9089580912F
:101AF00000010E94AA020E948B0288E082B9089528
:101B0000809100010E94AA020E948B0284E082B9A7
:101B10000895809100010E94AA020E948B0282E037
:101B200082B90895809100010E94AA020E948B024E
:101B300081E082B90895809100010E94AA020E946A
:101B40008B0282E082B90895809100010E94AA026E
:101B50000E948B0281E082B90895809100010E9469
:101B6000AA020E948B0284E082B90895809100014C
:101B70000E94AA020E948B0288E082B90895809197
:101B800000010E94AA020E948B0282E082B908959D
:101B9000809100010E94AA020E948B0281E082B91A
:101BA0000895809100010E94AA020E948B0282E0A7
:101BB00082B90895809100010E94AA020E948B02BE
:101BC00081E082B90895809100010E94AA020E94DA
:101BD0008B0284E082B90895809100010E94AA02DC
:101BE0000E948B0288E082B9089564E871E081E088
:101BF0000E946401809100010E94AA020E948B024F
:101C000081E082B9089512B808958FEF81B912B8B2
:101C100014B885B98AB91BB887B918B80E944C01A5
:101C20000E9441018091C601811114C064EF71E0EE
:101C300080E090E00E94DD010E947D010E94D402BC
:101C40008091CB018823E1F31092CB018091C601F2
:101C5000882361F38091C6018130A1F468EC70E0C3
:101C600080E090E00E94DD010E947D010E94490316
:101C70008091CB018823E1F31092CB018091C601C2
:101C8000813061F38091C6018230A1F464EF71E08C
:101C900080E090E00E94DD010E947D010E943B04F3
:101CA0008091CB018823E1F31092CB018091C60192
:101CB000823061F38091C6018330A1F468EC70E05A
:101CC00080E090E00E94DD010E947D010E949D0461
:101CD0008091CB018823E1F31092CB018091C60162
:101CE000833061F38091C6018430A1F464EF71E028
:101CF00080E090E00E94DD010E947D010E94CA0503
:101D00008091CB018823E1F31092CB018091C60131
:101D1000843061F38091C6018530A1F468EC70E0F5
:101D200080E090E00E94DD010E947D010E943C065F
:101D30008091CB018823E1F31092CB018091C60101
:101D4000853061F38091C601863099F464EF71E0CB
:101D500080E090E00E94DD010E947D0140D98091E9
:101D6000CB018823E1F31092CB018091C60186302C
:101D700069F38091C601873099F468EC70E080E0E7
:101D800090E00E94DD010E947D01AFD98091CB01DE
:101D90008823E1F31092CB018091C601873069F36B
:101DA0008091C601883099F464EF71E080E090E0A2
:101DB0000E94DD010E947D01C8DB8091CB01882358
:101DC000E1F31092CB018091C601883069F38091D4
:101DD000C601893099F46CE271E080E090E00E94E5
:101DE000DD010E947D014FDC8091CB018823E1F36E
:101DF0001092CB018091C601893069F3843129F4B6
:101E000065EA71E081E00E94640180E090E008955D
:101E1000EE0FFF1F0024001C0BBE0790F691E02D73
:061E20000994F894FFCFC5
:101E2600090100000053696D6F6E205361797300DC
:101E36004C6576656C203100426567696E2050728C
:101E4600657373696E6720204E6F77004C65766503
:101E56006C203120436C656172004C6576656C20A0
:101E660032004C6576656C203220436C65617200E9
:101E76004C6576656C2033004C6576656C203320A6
:101E8600436C656172004C6576656C2034004C6568
:101E960076656C203420436C656172004C6576650E
:101EA6006C203500596F7527766520776F6E212077
:101EB60020202020486967686573742053636F7219
:101EC600653A2035004661696C2120596F75206C92
:101ED6006F73742E2E486967686573742053636F39
:061EE60072653A20340091
:00000001FF
